{
  "transactions": [
    {
      "hash": "0xcf2c7960e33dcf11dd64deae3bb7adbf6277fcf6f6b354a253853d3773121650",
      "transactionType": "CALL",
      "contractName": null,
      "contractAddress": "0x779877a7b0d9e8603169ddbd7836e478b4624789",
      "function": "transferAndCall(address,uint256,bytes)",
      "arguments": [
        "0x9DdfaCa8183c41ad55329BdeeD9F6A8d53168B1B",
        "3000000000000000000",
        "0x908cb5e6fb990a7ee526761971a684dfbf0277949b00811429d2abb90cbac211"
      ],
      "transaction": {
        "from": "0xfbe5d30bb9363325b3b087f915306a0fc5be7e82",
        "to": "0x779877a7b0d9e8603169ddbd7836e478b4624789",
        "gas": "0x1603d",
        "value": "0x0",
        "input": "0x4000aea00000000000000000000000009ddfaca8183c41ad55329bdeed9f6a8d53168b1b00000000000000000000000000000000000000000000000029a2241af62c000000000000000000000000000000000000000000000000000000000000000000600000000000000000000000000000000000000000000000000000000000000020908cb5e6fb990a7ee526761971a684dfbf0277949b00811429d2abb90cbac211",
        "nonce": "0x7",
        "chainId": "0xaa36a7"
      },
      "additionalContracts": [],
      "isFixedGasLimit": false
    }
  ],
  "receipts": [
    {
      "status": "0x1",
      "cumulativeGasUsed": "0x7268a3",
      "logs": [
        {
          "address": "0x779877a7b0d9e8603169ddbd7836e478b4624789",
          "topics": [
            "0xddf252ad1be2c89b69c2b068fc378daa952ba7f163c4a11628f55a4df523b3ef",
            "0x000000000000000000000000fbe5d30bb9363325b3b087f915306a0fc5be7e82",
            "0x0000000000000000000000009ddfaca8183c41ad55329bdeed9f6a8d53168b1b"
          ],
          "data": "0x00000000000000000000000000000000000000000000000029a2241af62c0000",
          "blockHash": "0x63f94dacad6a28ddd3caa50fc18566596bc2b68b79eb9f8aa813d945f1f243dc",
          "blockNumber": "0x5d1327",
          "transactionHash": "0xcf2c7960e33dcf11dd64deae3bb7adbf6277fcf6f6b354a253853d3773121650",
          "transactionIndex": "0x58",
          "logIndex": "0xa7",
          "removed": false
        },
        {
          "address": "0x779877a7b0d9e8603169ddbd7836e478b4624789",
          "topics": [
            "0xe19260aff97b920c7df27010903aeb9c8d2be5d310a2c67824cf3f15396e4c16",
            "0x000000000000000000000000fbe5d30bb9363325b3b087f915306a0fc5be7e82",
            "0x0000000000000000000000009ddfaca8183c41ad55329bdeed9f6a8d53168b1b"
          ],
          "data": "0x00000000000000000000000000000000000000000000000029a2241af62c000000000000000000000000000000000000000000000000000000000000000000400000000000000000000000000000000000000000000000000000000000000020908cb5e6fb990a7ee526761971a684dfbf0277949b00811429d2abb90cbac211",
          "blockHash": "0x63f94dacad6a28ddd3caa50fc18566596bc2b68b79eb9f8aa813d945f1f243dc",
          "blockNumber": "0x5d1327",
          "transactionHash": "0xcf2c7960e33dcf11dd64deae3bb7adbf6277fcf6f6b354a253853d3773121650",
          "transactionIndex": "0x58",
          "logIndex": "0xa8",
          "removed": false
        },
        {
          "address": "0x9ddfaca8183c41ad55329bdeed9f6a8d53168b1b",
          "topics": [
            "0x1ced9348ff549fceab2ac57cd3a9de38edaaab274b725ee82c23e8fc8c4eec7a",
            "0x908cb5e6fb990a7ee526761971a684dfbf0277949b00811429d2abb90cbac211"
          ],
          "data": "0x0000000000000000000000000000000000000000000000008ac7230489e80000000000000000000000000000000000000000000000000000b469471f80140000",
          "blockHash": "0x63f94dacad6a28ddd3caa50fc18566596bc2b68b79eb9f8aa813d945f1f243dc",
          "blockNumber": "0x5d1327",
          "transactionHash": "0xcf2c7960e33dcf11dd64deae3bb7adbf6277fcf6f6b354a253853d3773121650",
          "transactionIndex": "0x58",
          "logIndex": "0xa9",
          "removed": false
        }
      ],
      "logsBloom": "0x00000004100000000000000000000000000000000020020000000000020000000000000000000000000000000000000000000000000000000000800000000000000000000000000000000008000000000000000000000000000020000020000008000000000000000000000000000000000000000000000000000010000040000000000000000000000000010000800000000020000000000000000000000000000000400000000000000000010000000000000000000000000004000000000000000002000000000000000000000000000000000000000100000000000000000010000000000000800000001000002000000000000000000000000000000000",
      "type": "0x2",
      "transactionHash": "0xcf2c7960e33dcf11dd64deae3bb7adbf6277fcf6f6b354a253853d3773121650",
      "transactionIndex": "0x58",
      "blockHash": "0x63f94dacad6a28ddd3caa50fc18566596bc2b68b79eb9f8aa813d945f1f243dc",
      "blockNumber": "0x5d1327",
      "gasUsed": "0xf0d9",
      "effectiveGasPrice": "0x15125c3e40",
      "from": "0xfbe5d30bb9363325b3b087f915306a0fc5be7e82",
      "to": "0x779877a7b0d9e8603169ddbd7836e478b4624789",
      "contractAddress": null
    }
  ],
  "libraries": [],
  "pending": [],
  "returns": {},
  "timestamp": 1718287693,
  "chain": 11155111,
  "commit": "cdfaad3"
}